:020000040001F9
:10C000006824002069E4010097CA010007D10100FB
:10C01000E7D40100EFD401000FD5010000000000BB
:10C020000000000000000000000000006FD50100CB
:10C03000A3D501000000000073E3010039E4010012
:10C040005BE4010067E40100DBDE010087E401003E
:10C0500089E401008BE401004DE101008FE401005F
:10C0600091E4010093E4010095E4010097E40100EC
:10C0700099E401009BE401009DE401009FE40100BC
:10C08000A1E4010049C80100A5E40100A7E4010002
:10C09000CBC80100ABE40100F3D90100AFE401001B
:10C0A000B1E40100B3E40100B5E40100B7E401002C
:10C0B000B9E40100BBE40100000000000000000042
:10C0C000BDE40100BFE40100C1E40100C3E40100DC
:10C0D000C5E40100C7E40100C9E40100000000005C
:10C0E0000000000000000000000000000000000050
:10C0F0000000000000000000000000000000000040
:10C10000000000000000000000000000000000002F
:10C11000000000000000000000000000000000001F
:10C40000012100F01F029140DFF8302605E00121F4
:10C4100000F01F029140DFF82826400942F8201062
:10C420007047012100F01F029140DFF81826F4E761
:10C430004901002807D5DFF8102600F00F0080180A
:10C4400000F8041C7047DFF8042681547047000090
:10C45000401E00BF00BF00BF00BF00BF00BF00BF45
:10C4600000BF00BF00BF00BF00BF00BF00BF00BFD4
:10C4700000BF00BF00BF00BF00BF00BF00BF00BFC4
:10C4800000BF00BF00BF00BF00BF00BF00BF00BFB4
:10C4900000BF00BF00BF00BF00BF00BF00BF00BFA4
:10C4A00000BF00BF00BF00BF00BF00BF00BF00BF94
:10C4B00000BF00BF00BF00BF00BF00BF00BF00BF84
:10C4C00000BF00BFC4D1704710B5DFF88415DFF896
:10C4D00084454FF4003008604FF48031DFF8780570
:10C4E000016401600120206000F023F901206060F8
:10C4F0000020DFF86845206100F01BF90020E070A3
:10C5000010BDF0B5DFF85405C168027813465A1E15
:10C51000002B43D08368D2B203EBC2031C781BE02C
:10C520003546F669C6B1BE42FAD1B54202BFDCF863
:10C530001C70C760002F08D1DFF824C50127CCF894
:10C54000007000270761012707713768F669EE61FF
:10C5500016B135687D1935605D78AC42D6D05D681E
:10C56000182616FB0455641C9E78E4B2B4422E785B
:10C5700008BF0024022E02D0032E06D0ECE76F681D
:10C58000D0F80CC065462E46CCE7C568002D1FBF0D
:10C5900000262E74ED69C560F7D1DDE7C0688842DA
:10C5A00001D00120F0BD0020F0BDF0B5DFF8AC14E3
:10C5B000CA680B781C46631E002C6CD08C68DBB2FA
:10C5C00004EBC30400E0CD6080BB25786678B542FB
:10C5D000F0D06668182717FB05666D1CA778EDB2CA
:10C5E000BD4208BF0025257037787568012F04BF4C
:10C5F0002F7C002FE9D1B7686F60F768AF603769AB
:10C60000EF607669AE610E790EB100266E600E693C
:10C610006F68DFF850E4A7EB060C4FEA0C2C4FEAEA
:10C620001C2CF44505D2AE6866440AE00546E8696C
:10C63000EDE7F61B3602AF68360ABE4234BFBE1BBA
:10C6400000262E6000266E60AE6001262E74002645
:10C65000EE61CE68002EB6D03768D5F800C06745C9
:10C6600004D3A7EB0C073760EE61ACE73746D7F889
:10C6700000E0E64506D23E46FF69002FACEB0E0C0B
:10C68000F5D103E0AEEB0C0EC7F800E0C5F800C032
:10C69000EF61F56198E7C868904201D00120F0BDD4
:10C6A0000020F0BD2DE9F843DFF8B043E068002832
:10C6B0003AD0D0F80080DFF8B0532E682769F01B1D
:10C6C0000002000A00F10309E07898B9DFF89C0342
:10C6D0004FF48031016401601120FFF7A2FE1120A8
:10C6E000FFF78EFEDFF888130120086000F021F8C4
:10C6F0000120E070C14538BFC14609EB07000002C8
:10C70000000AE863801B2968891B09020002090AE4
:10C71000000AC91C88420AD22868E86300F009F8B8
:10C72000BDE8F243112072E6BDE8F143CCE6BDE876
:10C73000F1832F208CE62DE9F047DFF82063B378F2
:10C7400030697178D6F80C800025994281460A46F6
:10C750000DD0521CD2B2022A08BF002206EB820181
:10C7600001274C6920180002000A306101E0002412
:10C7700027467270FFF7C5FEF1688246EFB10023CD
:10C7800012E0241AC318002010600846D169D76847
:10C7900057B103EB090E4FEA0E2E4FEA1E2EC2F8D8
:10C7A00004E09760D561054629B10A4610688442C5
:10C7B000E7D2001B10604FF0010AF1602846FFF736
:10C7C000F4FE00280EBFBAF1000F4046FFF76AFFE3
:10C7D00000203071BDE8F08742788378521CD2B2D5
:10C7E0009A42037808BF00229A4201D10020704784
:10C7F0000A7018224168407812FB001070472DE93A
:10C80000F041964F8046B86882B00C4615461E46E9
:10C8100000A900EBC800FFF7DFFF08B9042011E012
:10C82000012101704460904909688160C56006611A
:10C8300008994161B8689DF8001000EBC80000F04D
:10C84000FAF80020BDE8F681F8B58A48834C00214B
:10C85000016441648164C16401604160E6689EB323
:10C86000814800682169401A070200253F0A3068A4
:10C87000874216D33F1A45193046F669017C71B1DB
:10C880000021017442698169E369180005D01046EE
:10C89000984720B100F0F0F801E008469047002EDC
:10C8A000E5D1A0786178814201BF401CA070C0B280
:10C8B000022804BF0020A070A07804EB800045612E
:10C8C0001420BDE8F240A2E5F1BD34E72DE9F041C6
:10C8D0000546174617F003000E46984602D15F4CF6
:10C8E00017B9A06007202CE0FFF7EEFD03202070B1
:10C8F000A760C4F81C80183700200022A16801EB53
:10C90000C001401C0A704A708E704F6018210328C5
:10C9100011FB0677F2DBE2606270A2701420FFF771
:10C9200080FD06211420FFF783FD1420FFF768FD2A
:10C930004D4E062175601120FFF77AFD30682061A9
:10C940000020BDE8F081454B9B6843B1130018BF40
:10C95000002801D1072070470068037C0BB1082034
:10C96000704703744174426100207047EFF3058003
:10C97000C005C00D16D0103840B2002806D5324987
:10C9800000F00F00401810F8040C01E02F49405C43
:10C990004009022802D0062802D003E00020704798
:10C9A0000120704702207047F8B504462B48806884
:10C9B000002818BF002C0D46164605D0052D01D2C3
:10C9C0000720F2BD606908B90820F2BD607C01282B
:10C9D0000CBF2F460027FFF7C9FF00963B462A46AB
:10C9E0002146FFF70CFFF2BD70B51C4D0446A86848
:10C9F000002818BF002C82B001D0606908B9082057
:10CA000076BD00202074FFF7B1FF0646A86800A994
:10CA100000EBC600FFF7E0FE08B9042076BD022156
:10CA200001704460A8689DF8001000EBC60000F09B
:10CA300002F8002076BD41701420E8E400E100E037
:10CA400000E200E080E200E018ED00E000E400E039
:10CA500080E100E00410014008130140041C0020A4
:10CA600008100140FFFF7F0004150140041301403E
:10CA7000001001400011014010B584B000A900224F
:10CA8000002314461CC1029000AA194644F201007A
:10CA900000F002F81FBDFEE7BFF34F8F0548064ABE
:10CAA000016801F4E06111430160BFF34F8F00BFE3
:10CAB000FDE700BF0CED00E00400FA050870000A75
:10CAC00048700220704730B50D4683B00446288870
:10CAD0000930824201D20C203EBD00A871DFE8B9C6
:10CAE0002988082008551B212888401C28800622F8
:10CAF00080B201550DF1010100F081F9001900F03B
:10CB0000C7FA2888801D28809DF8002002B10122E4
:10CB100080B202552888401C288000203EBD70B598
:10CB2000054682B028780C46012804BF69780029A0
:10CB300001D1072076BD11888E1CB3421FD3012876
:10CB400004D168780818801C834218D3581A831EB1
:10CB5000ADF8003000A910880019801C7DDF58BB9B
:10CB6000297802290FD1BDF800009BB2834208D278
:10CB70000820ADF80030BDF80010FF290CD30C20C0
:10CB800076BD0920F7E708200129F2D169789BB228
:10CB90008B42EED90B46ECE71388491C19551188D6
:10CBA000491C118089B208551088401C1080BDF8BE
:10CBB000001008181080002076BD2DE9FC470A9E61
:10CBC0000B9C37884FF0000E054688469146F2468A
:10CBD00007E030889DF8001050FA81F030800AF1AB
:10CBE000010A288882452FDA686850F82A000190E7
:10CBF000002200A901A865DF98BB9DF80000484508
:10CC0000EDD131889DF80020BEF1000F14BF002047
:10CC1000022012FA81F252FA80F084421DDBBEF14A
:10CC2000000F09D1481C30804FF0010E80B200F88F
:10CC300003803088401C308000A93088C21801A8C9
:10CC400065DF0028C5D00CE0BEF1000F08D03088A9
:10CC5000C01B401E80B2FF2801DD0C2001E0F8540B
:10CC60000020BDE8F6872DE9FC41089F099C01944E
:10CC700016460546984600970222FFF79EFF38B9F0
:10CC8000019400974346102231462846FFF795FF4E
:10CC9000BDE8F681F8B51446054620880E46811D8C
:10CCA0008B4201D20C20F2BD298806290EDB40F60A
:10CCB0008147B9424FF6FF7301DB994206D16A887A
:10CCC000062A03DBBA4203DB9A4205D00720F2BDF5
:10CCD000994201D08A42F9D3052181551221208839
:10CCE000401C208080B281552088401C208080B26A
:10CCF00081192888FFF7E2FE218851FA80F0208010
:10CD000080B281196888FFF7D9FE218851FA80F036
:10CD100020800020F2BD70B5044616460D46A0885E
:10CD20003188801C10FA81F2921C934201D3FF28B3
:10CD300001D30C2070BD401C4855FF213088401C99
:10CD4000308080B241553088401C308080B241191B
:10CD50002088FFF7B3FE318851FA80F03080A28836
:10CD60005AB1A16809B9072070BD80B2401900F01E
:10CD70008FF93088A18808183080002070BD2DE917
:10CD8000F04100F128060C463068154690B34FF08C
:10CD9000000809E080B2001900F07AF92888B98803
:10CDA0000818288008F101085FFA88F83079804572
:10CDB00022D230680C2111FB0807B888801CFF289C
:10CDC00001D30C2019E02988401C0855162100F0D9
:10CDD00016F8015500F013F801193888FFF76EFEB8
:10CDE000298851FA80F02880BA88002ADAD0B968F8
:10CDF0000029CFD1072000E00020BDE8F08128887D
:10CE0000401C288080B270472DE9F043174683B05C
:10CE10000546B7F80090002005F12C040E46388036
:10CE2000A16879B10978B9F1030F01D20C20DAE0D9
:10CE300002223270112300F0E7F892B2915539883E
:10CE4000491C39806168B1B13A8802F112039945F1
:10CE5000ECD311239355102300F0D6F80F22B7F826
:10CE600000C0535C0CF80630521E3B8852B25B1C6B
:10CE7000002A3B80F3D5A17801B33888C21C9145C4
:10CE8000D4D3022282551C2200F0B3F83888401C0B
:10CE9000012938800BD024D3032904D005D30429D9
:10CEA0001FD1032104E0022102E0012100E0002162
:10CEB00080B281553888401C38800020617831B1BB
:10CEC0004A4639463046FFF7FEFD002808D1A978CA
:10CED000D1B13888001D8145A8D300A879DF10B1F1
:10CEE00081E007207FE0398803208855192100F070
:10CEF00094F880B28119BDF80000FFF7DFFD398892
:10CF000051FA80F038800020E97859B13888C21C85
:10CF100091458BD302228255012200F06AF800F07D
:10CF20007CF800206968B1B191F900003988CA1C09
:10CF30009145EED302228A550A223988491C39804C
:10CF400089B28A553988491C398089B28855388810
:10CF5000401C38800020298949B100F050F8062291
:10CF6000022105F10800FFF77EFE00283BD1298A47
:10CF700049B100F044F80722032105F11000FFF742
:10CF800072FE00282FD1298B41B100F038F815220C
:10CF9000142105F11800FFF766FE20BBD5F82080AC
:10CFA000B8F1000F05D000F020F84046FFF772FE00
:10CFB000C8B9D5F82480B8F1000F05D000F015F8F5
:10CFC0004046FFF7A8FE70B9217829B100F00DF8AE
:10CFD0002846FFF7D4FE30B9297821B100F005F8D2
:10CFE0002846FFF79CFDBDE8FE834B463A46314696
:10CFF00070473888401C388080B282557047CDF821
:10D0000004900097334670473A88521C3A8092B297
:10D0100093553A88521C3A8070473888401C3880B3
:10D0200080B281553888401C3880704730B591B047
:10D030000C461F21ADF80210ADF8001060B1C178A8
:10D04000490701D4072021E00DF1020209A9FFF7E9
:10D05000DBFED8B909AD02E00025ADF8020054B1FD
:10D06000E0780028EED100AA01A92046FFF7CCFE07
:10D0700060B901AA02E00022ADF80000BDF800305E
:10D08000BDF80210DBB2C9B2284672DF11B030BD64
:10D0900062B38B0708D0521E11F8013B00F8013B28
:10D0A00000F024808B07F6D1830740F0208000BF7A
:10D0B000103A07D330B4B1E83810103AA0E838106D
:10D0C000F9D230BC530724BFB1E80810A0E808101B
:10D0D00044BF51F8043B40F8043BD20724BF31F869
:10D0E000022B20F8022B44BF0B7803707047083ADC
:10D0F00007D3B1E80810083A40F8043B40F804CBE5
:10D10000F7D25307E4E7FEE72DE9F04FC8B00A462F
:10D110000023002408A9A518241D6F782E783F0449
:10D1200047EA0666AF78ED7846EA0726354341F8C8
:10D1300023505B1C102BEED3402B1AD208AA02EB13
:10D140008302403A956B54684FEAF54686EA754685
:10D1500086EA9525566A126875194FEAB44686EA3A
:10D16000F41686EAD4046419121941F823205B1CD2
:10D17000E2E7026D07924FF00008436D0693846D5D
:10D180000594C56D0495066E0396476E0297D0F818
:10D1900068E0CDF804E0F446D0F86CE0F2464FEADF
:10D1A000F62989EAB61989EA7669D14407EA060AB6
:10D1B0002CEA060B8BEA0A0AD1440FF2242A5AF809
:10D1C00028A0D14451F828A0D1444FEA723A8AEA03
:10D1D000B20A8AEAB25ACDF800A008F1010884EA3E
:10D1E000030A0AEA020B04EA030A8AEA0B0ADDF8D8
:10D1F00000B0D344E246BC46374609EB0506254657
:10D200001C461346B8F1400F0BEB0902C7D3079930
:10D21000511801650699591841650599611881658C
:10D2200004996918C1650399711801660299791802
:10D23000416601996144816648B00AEB0E01C166FE
:10D24000BDE8F08F08B90E2070470021016400226C
:10D25000C0E912210849016508494165084981650D
:10D260000849C1650849016608494166084981665F
:10D270000849C1661046704767E6096A85AE67BB14
:10D2800072F36E3C3AF54FA57F520E518C68059BA8
:10D29000ABD9831F19CDE05BF8B504000D461646E7
:10D2A00001D016B10DB90E20F2BD002714E0216C9B
:10D2B000785D0855206C401C402820640BD100F09C
:10D2C0008CF8D4E9120110F5007041F10001C4E9B5
:10D2D0001201002020647F1CB742E8D30020F2BD79
:10D2E00070B504000D4618BF002D01D10E2070BD91
:10D2F00004F13806B068421C382809D28021015553
:10D30000382A14D2C2F13801101900F0E9F80EE001
:10D3100080210155402A04D2C2F14001101900F0C9
:10D32000DFF800F05AF83821204600F0DDF8D6E9A1
:10D330000423B068410F12EBC0005941C6E9040153
:10D34000F0712822D6E904010004000EB071D6E97C
:10D350000401000C7071D6E90401000E3071D6E9A9
:10D360000401F17000F035F8B070302200F031F8AF
:10D370007070382200F02DF8307000F02EF8002088
:10D38000C100B369C1F11801421923FA01F4147004
:10D39000401CF36923FA01F414710428336A23FA58
:10D3A00001F41472736A23FA01F41473B36A23FA52
:10D3B00001F41474F36A23FA01F41475336B23FA3D
:10D3C00001F41476736B23FA01F41477D8D3002098
:10D3D00070BDD6E9040100F08BB82146204693E6E3
:10D3E000982F8A4291443771CFFBC0B5A5DBB5E9D0
:10D3F0005BC25639F111F159A4823F92D55E1CAB44
:10D4000098AA07D8015B8312BE853124C37D0C55D1
:10D41000745DBE72FEB1DE80A706DC9B74F19BC119
:10D42000C1699BE48647BEEFC69DC10FCCA10C2409
:10D430006F2CE92DAA84744ADCA9B05CDA88F976ED
:10D4400052513E986DC631A8C82703B0C77F59BF57
:10D45000F30BE0C64791A7D55163CA066729291483
:10D46000850AB72738211B2EFC6D2C4D130D385320
:10D4700054730A65BB0A6A762EC9C281852C7292E2
:10D48000A1E8BFA24B661AA8708B4BC2A3516CC710
:10D4900019E892D1240699D685350EF470A06A1049
:10D4A00016C1A419086C371E4C774827B5BCB03498
:10D4B000B30C1C394AAAD84E4FCA9C5BF36F2E6836
:10D4C000EE828F746F63A5781478C8840802C78CC5
:10D4D000FAFFBE90EB6C50A4F7A3F9BEF27871C6C8
:10D4E000002200F015B8FEE7002200F041B8FEE788
:10D4F000D2B2203A22BF21FA02F000217047203236
:10D50000D141D04048409140D14048407047FEE76B
:10D51000401810F0030308D0C91A1FD3DB0748BF17
:10D5200000F8012D28BF20F8022D130030B4144656
:10D530001546103928BF20E93C00FAD8490728BF12
:10D5400020E90C0048BF40F8042D890028BF20F8CE
:10D55000022D48BF00F8012D30BC7047C91818BF14
:10D5600000F8012DCB0728BF00F8012D7047FEE71A
:10D5700000B500BF130096469446103928BFA0E8B6
:10D580000C50FAD85FEA417C28BF0CC048BF40F875
:10D59000042BC90728BF20F8022B48BF00F8012B35
:10D5A00000BDFEE710B592B04C20ADF80000382168
:10D5B000C04C04F1500002901720ADF8040003A8FD
:10D5C000FFF792FF00208DF80C00002106208DF857
:10D5D0000F0000A80C9003A8FFF728FD08B1FFF783
:10D5E0004BFA18212046FFF77FFF0320207012B06E
:10D5F00000F06DF810BD30B599B002208DF8040030
:10D6000001ACAA206070A070E0702071607108A861
:10D610000FF2B8210CC90CC0052208A90DF10500B4
:10D62000FFF736FDC320A071BB20E07120728DF89A
:10D630000D008DF80E008DF80F008DF810009D4C38
:10D64000D4E91201D4E91023994208BF904205D0D1
:10D6500000F07BF8D4E91001C4E91201062204F1BC
:10D6600018010DF10B00FFF713FD0D20ADF81800A8
:10D670004FF66F6501A80790ADF8145038210AA83D
:10D68000FFF732FF01208DF80200ADF8380000A945
:10D690000EA8ADF80050416000218DF8281004213B
:10D6A0008DF82B1005A98161012101770AA80021BD
:10D6B000FFF7BCFC08B1FFF7DFF918212046FFF7A0
:10D6C00013FF0220207019B000F001F830BD0020D7
:10D6D000606020724FF4C870208200206082704722
:10D6E00010B575484178491C0323827819421BD133
:10D6F000521CD2B20F2192FBF1F1C1EB0111511A70
:10D7000011D16C49D1E91023521C43F10003C1E946
:10D7100010236A490B68DC4304F480144C6003F462
:10D72000801300228B600021827041700278511EAC
:10D730008941C90F0170007800281CBFBDE8104066
:10D74000FFF730BFBDE8104055E7F0B5594EADB01A
:10D75000192206F1880106F12000FFF7A9FCD6E99D
:10D7600010450027FA0020462946C2F13802FFF78B
:10D77000BFFEB919062F81F8200003D12004000E46
:10D78000307702E0072F08BF74777F1C082FE9DB92
:10D7900010A8FFF757FD192206F1200110A8FFF786
:10D7A0007BFD08A910A8FFF79BFD002104A808AB8A
:10D7B00008AACB188A5C1B7C5A400A54491C1029C1
:10D7C000F5DB002202A904AC1419135C247A63402F
:10D7D0005354521C082AF6DB002002ABC318425CEB
:10D7E0001B795A4000ABC254401C0428F5DB00A84A
:10D7F00006F1180102680A602DB0F0BD10B52D4C7D
:10D8000086B0002304F1EC0205210020FFF75EF84A
:10D8100008B1FFF731F92A4A0FF2B8000121FFF7EA
:10D8200092F808B1FFF728F90FF2AC0000680090F9
:10D830000023482204F1A40100A800F0C5F808B1B3
:10D84000FFF71AF901AA0021002000F0E1F808B161
:10D85000FFF712F91B4800F0F3F808B1FFF70CF9D5
:10D8600001A800F0F4F808B1FFF706F9FFF79AFEF7
:10D8700000224FF4005104F16800FFF795F808B159
:10D88000FFF7FAF8204673DF08B1FFF7F5F802203A
:10D8900000F0EBF908B1FFF7EFF80B49032008603F
:10D8A000FFF753FF48DF0028FCD0FFF7E5F8F9E762
:10D8B0000000000070180020641C002004050050C7
:10D8C000E1D601007018002050070050A0DCED01E7
:10D8D0002B000000D81800200100000730B50121FE
:10D8E00020280DDA5E4C24FA00F5EC070FD500284D
:10D8F00010D55C4B00F00F04E31813F8043C0BE068
:10D90000402807DAA0F1200411FA04F402D142F20F
:10D91000010030BD544C035D5B09082B14D2002B71
:10D9200018BF012B10D0042B18BF052B0CD04F4B68
:10D930009C68420900F01F004CB901FA00F04C4904
:10D9400041F82200002030BD42F2020030BD53F801
:10D95000224001FA00F0204343F82200F2E780B5AC
:10D96000FFF79AF801BD7CB5424C207858B3206986
:10D970000028E0680CBF0125002500280CBF012607
:10D98000002665B900A852DF052808BF012506D08A
:10D9900010B1FFF771F802E000982169884786B955
:10D9A0006088ADF8040001A9A06861DF052808BF00
:10D9B000012606D010B1FFF75FF802E0A068E16829
:10D9C00088473542DDD073BD10B511B111F00304A5
:10D9D00001D0072010BD274CA160628063602649FA
:10D9E00010DF28B9012020701620BDE8104075E72F
:10D9F00010BD80B51F484068010005D0804730B198
:10DA0000BDE80240FFF738B8BDE80140ABE701BD13
:10DA100070B505460E46144614212046FFF764FDF6
:10DA2000012020802672002020616572207B00F09A
:10DA3000FE00207328001CBF0120A072002070BDD2
:10DA400081B00E4900910020009901B0704782B06A
:10DA50000A4901910199009100A960DF02B0704765
:10DA6000FC06FFBC18ED00E000E400E0581C0020BC
:10DA700000E100E0441C00205FD901007018002084
:10DA80002DE9F0477E4C7F4EE16982460020CA4373
:10DA90006169BAF1170F02F4E01701EB81034FF44B
:10DAA000C87E4FF47A684FF4F0194FF4003512D85D
:10DAB000DFE80AF00C1212272F3E515D636D636D93
:10DAC000C97D7D7D7D7DA7ACB4BEC9C902F4F011CE
:10DAD0007160B0602073BBE07760B060326882F440
:10DAE000F012920307D57560BAF1020FB06019D138
:10DAF0004FF4E16E27E0B560BAF1020F706022D1F9
:10DB00001FE000F0ABF819D500F0A4F84FF4487E00
:10DB100019E07760B060306880F4F010800303D5BE
:10DB200000F098F8C6460EE0B560002070600AE08C
:10DB300000F094F802D500F08DF802E0B560002006
:10DB400070604FF0C80E6420BEFBF0F084F80CA0AB
:10DB50000022414325E000F081F802D500F07AF878
:10DB600002E0B56000207060062020730DE0776051
:10DB7000B060B5607060072163E03068C24302F4B2
:10DB80008022726000F48020B060002209E03068DA
:10DB9000C14301F48021716000F48020B060002254
:10DBA000194604F12400BDE8F047FEF7FDBE04F17C
:10DBB0004400FEF719FFDAF1110E1AD0C8B94FF47C
:10DBC0000021BEF1020FE1610CD3C821606911FB95
:10DBD0000EF16423B1FBF3F14143002204F1440050
:10DBE000FEF7E2FEE16901F4F011B160002171601D
:10DBF0002EE0E16901F4F01171600021B160E16192
:10DC000026E0C6F80490B06012211AE04FF4E0114B
:10DC10007160B060B5607060132112E04FF4D011F4
:10DC20007160B0604FF48021B1607060142108E031
:10DC30004FF4C0117160B0604FF4C021B1607060EA
:10DC40001521217304E0C6F80890706084F80CA0D8
:10DC5000BDE8F08775600020B06070477760B06005
:10DC6000306880F4F01080037047054A127E014648
:10DC70000020D20744BF0846FFF702BF70470000EC
:10DC8000281B00200405005007E0D0F804030840DA
:10DC900018BF0120C0B2704700BF085800B1012072
:10DCA000C0B27047DFF8501200200860DFF83C0275
:10DCB0008168828A515C828A521C8282DFF83C022F
:10DCC000016070474FF48E713046DDE7DFF81C22AB
:10DCD000DFF83002D37DDFF828121BB900220A607A
:10DCE0000068704700230B60517E0068D368C854F9
:10DCF000507E401C5076704700B585B001228DF8EB
:10DD0000002001918DF8080000A8784A0BE000B5CA
:10DD100085B000218DF808008DF80010734A9068D6
:10DD20009175019000A811685268904705B000BD38
:10DD30002DE9FF416C4E4FF400713046FFF7A5FF0F
:10DD40006D4C6A4D6B4F4FF4017890B14FF4927166
:10DD5000FFF7BAFF68B10020A060C7F80080A87E76
:10DD600008B90120706000F0A3F8E87D00F0A8F881
:10DD700022E004213046FFF788FFE8B14FF48471B8
:10DD8000FFF7A2FFC0B1FFF7A1FFE87D697E8842DF
:10DD900012D1E9682A7E22B1687E00F083F86A76A3
:10DDA00008E0A87E08B901207060C7F80080002054
:10DDB000E875687EFFF7A0FFFFF784FF58B1A87DE4
:10DDC000A98A814202D2FFF76DFF04E000212160A1
:10DDD00008B1FFF79CFF4FF4A271FFF775FF68B120
:10DDE0000020A062A87E08B101203060E87D28B143
:10DDF0000020E875E968687EFFF77EFFBDE8FF81D7
:10DE0000F0B5394F85B04FF4927100F064F8384C9A
:10DE1000364D3F4E38B10020606100F049F830685F
:10DE200000F04EF81BE04FF4887100F054F8B0B1E8
:10DE3000002020603068E97DC0B288420FD12A7E80
:10DE4000E9684AB1304BD3F800C02CF0200CC3F87D
:10DE500000C000F027F800E0EA75FFF74DFF4FF42F
:10DE6000A27100F038F800281FBF00206063E87D31
:10DE7000002806D00020E8753068E968C0B2FFF7D6
:10DE80003BFF4FF4907100F026F800281FBF0020E0
:10DE90002061A87D002803D03069C0B2FFF737FFAA
:10DEA00005B0F0BDEA752A69EA6000222A7670475B
:10DEB00002208DF800001548016801600391704749
:10DEC00029686A688DF80800E86801900020E87504
:10DED000287600A810473846DEE60448007F002870
:10DEE00018BFFFF78DBF23E700200040241C00204F
:10DEF00010210040082300401C2100401C25004048
:10DF000008210040182500400022004080240040E5
:10DF10003C25004010B56D480178062904BF017901
:10DF200011F00F0F02BF017A01F0F001302902D188
:10DF3000674A6849116002786749062A04BF027976
:10DF400012F00F0F0ED1826802F0F003302B1EBFCB
:10DF5000402B02F0F002502A04D1604A1268C2F34A
:10DF600042324A600278062A04BF027912F00F0F8B
:10DF700002BF027A02F0F002302A04D1584A136834
:10DF800023F0807313600278062A04BF027912F02E
:10DF90000F0F0ED1826802F0F003302B1EBF402B12
:10DFA00002F0F002502A04D14E4A0023136053605D
:10DFB0000B600278062A04BF027912F00F0F06D117
:10DFC000027A02F0F002302A04BF03228A66017846
:10DFD000062904BF017911F00F0F02BF017A01F089
:10DFE000F001302908D1404905220A6001228A67E0
:10DFF00000228A603F224A600178062904BF017925
:10E0000011F00F0F02BF007A00F0F000502823D16A
:10E01000364937480A6802604A6842608A68826006
:10E02000CA68C2600A6902614A6942618A69026219
:10E03000CA6942620A6A82624A6AC2628A6A026380
:10E04000CA6A42630A6B02644A6B42648A6B8264E6
:10E05000CA6BC264096C01652648C16F41F4700146
:10E06000C167BFF34F8FBFF36F8F23490A68002A40
:10E070005CBF4A68002A21D5204A01231360204B47
:10E080001C68002CFCD015240C601C68002CFCD0F3
:10E0900015244C6019680029FCD000211160196812
:10E0A0000029FCD0BFF34F8F0168164A01F4E061EC
:10E0B00011430160BFF34F8F00BFFDE701490248E4
:10E0C000086010BD241B00200090D003E00F00F07A
:10E0D00074C007400DF0ADBA38050040440200108E
:10E0E000FCED00E00C01004010560040040400105C
:10E0F00020C500400CED00E00012001004E50140D6
:10E1000000E401400400FA05DFF8781108580128FE
:10E1100018BF0020704700F1804000F5C04000218A
:10E1200081B0016000680090009801B07047DFF88E
:10E13000582152F8203023F4403342F8203052F86E
:10E14000203043EA014142F8201070472DE9F84F92
:10E150000025A8464FF480760127082430B2FFF747
:10E16000D3FF00281EBF4A480068384203D030B2AF
:10E17000FFF7D1FF3D437F00361D641EEED14FF403
:10E18000BE70FFF7C1FF40B14FF4BE70FFF7C3FF91
:10E190004148D0F8008045F00045280615D00127F9
:10E1A00000263C4C2F420CD054F8260054F8261080
:10E1B000364A52F82620090C01F00301C0F304206E
:10E1C00090477F00761C082EECD3002D57D54FF0DA
:10E1D000FF300025009001E08046009500240026D5
:10E1E0002A48301890F95000C1B210F1010F21F007
:10E1F000C0093AD0009820FA09F2D00735D588092D
:10E2000000F0030A214809EB000191F9301050F8A1
:10E2100021B0BBF1000F02D1BAF1030F25D10120CB
:10E2200000FA09F7184850F82900BAF1030F08BF9F
:10E230003D43000C17EA080F00F0030002D002284B
:10E2400013D101E0032810D1BAF1030F07D102283E
:10E250000CBF032102214846FFF769FF641CBBF194
:10E26000000F02D051464846D847761C042EB7D33B
:10E27000E4B2002C1EBF084800684045ACD1BDE8A0
:10E28000F18F00000060004000070050AC1B002030
:10E29000046300401065004010050050816807E0ED
:10E2A00002681168536889185B18C36008320260FD
:10E2B000C2689142F4D04A1C8260087870472DE908
:10E2C000FF4D00F10801009100270268520801EBA0
:10E2D000C2010191B84600210291039101684908E9
:10E2E00000EBC101406800F0010501F1080440089D
:10E2F00004EBC00630E000A8FFF7D0FF4FFA80FA29
:10E300000AE0009801680818009902904968081806
:10E310000390009808300090029803998842F0D04A
:10E3200010F801BB029047450CD1B44208BF00F081
:10E330001DF8276805B14F44606800EB07080834F2
:10E340004745F2D0BAF1000F07F801BB0AD51AF120
:10E35000010AE8D14745CED1B442CCD1304604B011
:10E36000BDE8F08DBAF1010AD6D5F3E7012000F03F
:10E3700001B8FEE72021090326311820ABBEF9E7DA
:10E3800019E050F8041BCB0744BFA9F10103591849
:10E39000121F0023042A41F8043BF9D25FEA827C71
:10E3A0000B4604D54FF0000CA1F800C09B1CD10710
:10E3B00044BF0021197050F8042B002AE1D17047A6
:10E3C00010B5074979441831064C7C44163404E0F2
:10E3D0000A68081D511888470146A142F8D110BDAE
:10E3E0002C000000540000004EF68851CEF20001CF
:10E3F000086840F470000860BFF34F8FBFF36F8F61
:10E400004FF00070E1EE100A7047000075FFFFFF4B
:10E4100040010000281B002000000000A3FEFFFFB9
:10E420000200000002000000A20000003C0000000A
:10E4300070180020B8020000FEE700000120C0466E
:10E44000002801D0FFF7BCFF0020C046C046FFF700
:10E45000D5F900F000F800F001B8FEE707463846AD
:10E46000FFF788FFFBE7FEE70148804701480047C8
:10E4700015DF010079E40100C046C046FFF7B4FF94
:10E48000FFF7DCFFFEE7FEE7FEE7FEE7FEE7FEE75D
:10E49000FEE7FEE7FEE7FEE7FEE7FEE7FEE7FEE754
:10E4A000FEE7FEE7FEE7FEE7FEE7FEE7FEE7FEE744
:10E4B000FEE7FEE7FEE7FEE7FEE7FEE7FEE7FEE734
:10E4C000FEE7FEE7FEE7FEE7FEE7B000160215D026
:10E4D000D2CE249EFC11E582C41C6A7A17EF384C18
:10E4E000494E45C3D70010A0DCED012B5CF2A423FC
:10E4F0008C194FE41D7FE34F810081008100810072
:06E50000E8000290D003C8
:040000050001E47999
:00000001FF
